*TEXT                                                                                     
13020100040200010000000101010101200504020404                                              
D/S   01255006060708091011                                                                
01HATCHS0411050001000200030004                                                            
0001010301201 60.000000EGG W                                                              
000301500 100.00000X WT.                                                                  
000303800 200.000008WK WT                                                                 
HATCHS0000000103                                                                          
959741510026581151506148630859081037420690090090075466921                                 
937931510025901111506148630859081037220163490063475466921                                 
889611510025200981506148630859081037118790090090075466921                                 
889511510025481211506148630859081037121090090090075466921                                 
959941510026261211506148630859081037321290090090075466921                                 
959841510026281001506148630859081037319190090090075466921                                 
918521510046161181506148630860231117320990090090090009000                                 
918421510045720951506148630860231117218690090090090009000                                 
960141510046521291506148630860231117422090090090090009000                                 
938431510046241211506148630860231117321190090090090009000                                 
890311510066601291506148630867811187421849090049054705135                                 
890011510066640761506148630867811187416549090049054705135                                 
960441510067161351506148630867811187522690045045054705135                                 
938831510067321321506148630867811187522260090060054705135                                 
918721510066380951506148630867811187318650790050754705135                                 
890411510086421141506148630865901057320390090090090007264                                 
939131510086481091506148630865901057319990090090090007264                                 
938931510086721131506148630865901057420390090090090007264                                 
919121510086441171506148630865901057320890090090090007264                                 
890611510086641301506148630865901057421990090090090007264                                 
939431510106640991506148630860430957418990090090037674908                                 
939331510106340891506148630860430957317990090090037674908                                 
939231510105540731506148630860430957216390090090037674908                                 
891211520126460881657158614664980997317763490063474887488                                 
960741520126480691657158614664980997316090090090074887488                                 
960541520126820951657158614664980997418690090090074887488                                 
939631520126680881657158614664980997417890090090074887488                                 
919421520126681001657158614664980997419190090090074887488                                 
919221520126220761657158614664980997316790090090074887488                                 
891311520126161111657158614664980997320063490063474887488                                 
891611520146300971657158614660100887318665990065970457045                                 
891511520146120901657158614660100887317965990065970457045                                 
940031520145960871657158614660100887217790090090070457045                                 
939931520145901001657158614660100887219090090090070457045                                 
919721520146080821657158614660100887317363490063470457045                                 
891811520145980801657158614660100887216965990065970457045                                 
961141520145920911657158614660100887218290090090070457045                                 
961041520146060981657158614660100887318990090090070457045                                 
960841520145820981657158614660100887218990090090070457045                                 
892011520166141091657158614662751007319865990065977216721                                 
961541520166341191657158614662751007321090063463477216721                                 
961441520166301201657158614662751007321190063463477216721                                 
961341520166840801657158614662751007417190063463477216721                                 
940431520166200721657158614662751007316290063463477216721                                 
940331520166500821657158614662751007417290063463477216721                                 
940231520166121111657158614662751007320190063463477216721                                 
919921520166401151657158614662751007320690090090077216721                                 
892411520166581041657158614662751007419365990065977216721                                 
893111520185921201657158614658751057220990090090077617761                                 
892911520185801111657158614658751057220090090090077617761                                 
892811520185701111657158614658751057220090090090077617761                                 
892511520185561001657158614658751057218990090090077617761                                 
962041520185701101657158614658751057220190090090077617761                                 
961941520186101091657158614658751057320090090090077617761                                 
961841520185781051657158614658751057219690090090077617761                                 
961741520185960711657158614658751057216290090090077617761                                 
961641520185901051657158614658751057219690090090077617761                                 
940831520185721221657158614658751057221260090060077617761                                 
940731520185860971657158614658751057218760090060077617761                                 
920421520185861171657158614658751057220890090090077617761                                 
920321520185801061657158614658751057219790090090077617761                                 
920221520185600691657158614658751057216090090090077617761                                 
893511520205640561657158614661921087214590063463473895629                                 
893411520206000611657158614661921087315090063463473895629                                 
962141520206320631657158614661921087315490045045073895629                                 
920821520206320741657158614662751087316590090090073895629                                 
920921560246780401486136652458601056413190090090060006000                                 
962341560245821141486136652458601056220590090090060006000                                 
962641560266800851486136652464531087417690090090075467546                                 
941531560266761041486136652464531087419490090090075467546                                 
941331560266400911486136652464531087318190090090075467546                                 
941231560266701201486136652464531087421090090090075467546                                 
894111560266421271486136652464531057321690090090075467546                                 
941831560287420951486136652470301087518563490063464305470                                 
941631560287521151486136652470301087520563490063464305470                                 
894511560287101211486136652470301087521057853849064305470                                 
962941560287140991486136652470301087519058990058964305470                                 
941931560287381021486136652470301087519263490063464305470                                 
895311570365821201651150620959321052220990090090060806080                                 
894911570365920181651150620959321052210790090090060806080                                 
942331570365840891651150620959321052217950790050760806080                                 
921621570365820871651150620959321052217865990065960806080                                 
922121570385881011651150620961481068219226590026532273227                                 
895511570406761221651150620967490958421132390032330853092                                 
942731570406921221651150620967490958421245090045030853092                                 
922221570406821541651150620967490958424526590026530853092                                 
895911590425921031523134619861341108219290090090090009000                                 
895811590425920831523134619861341108217290090090090009000                                 
963441590426160991523134619861341108319090090090090009000                                 
943131590426180861523134619861341108317690090090090009000                                 
922721590426141311523134619861341118322290090090090009000                                 
922521590426221211523134619861341108321290090090090009000                                 
896011590425941111523134619861341108220090090090090009000                                 
896411590445860871523134619858601088217690090090077347734                                 
896211590445941051523134619858601088219490090090077347734                                 
896111590445841291523134619858601088221890090090077347734                                 
923221590445941111523134619858601088220290090090077347734                                 
923121590445720861523134619858601088217790090090077347734                                 
922921590445880951523134619858601088218690090090077347734                                 
922821590446081041523134619858601088319590090090077347734                                 
963941590445881011523134619858601088219290090090077347734                                 
963741590445801031523134619858601088219490090090077347734                                 
943431590445921101523134619858601088220063490063477347734                                 
896711590466361211523134619866281188321065990065962656265                                 
964441590466821501523134619866281188424160090060062656265                                 
944031590466821131523134619866281188420390090090062656265                                 
943831590467060941523134619866281188518490090090062656265                                 
943731590466581241523134619866281188421490090090062656265                                 
923321590466921481523134619866281188423945090045062656265                                 
897111590466581101523134619866281188419965990065962656265                                 
896911590466281341523134619866281188322365990065962656265                                 
896811590466420911523134619866281188318065990065962656265                                 
944231600526361121574152620962801018320254790054763445889                                 
923421600526320981574152620962801018318954790054763445889                                 
897411600526261311574152620962801018322065963454863445889                                 
897811600546340991574152620962470918318865990065962656265                                 
944831600546161201574152620962470918321090090090062656265                                 
944531600546220881574152620962470918317890090090062656265                                 
944331600546080811574152620962470918317190090090062656265                                 
898111600565760971574152620964360958218690090090090007708                                 
965041600566580991574152620964360958419090090090090007708                                 
945231600566140891574152620964360958317930090090090007708                                 
944931600566740931574152620964360958418390090090090007708                                 
944831600566241101574152620964360958320090090090090007708                                 
924321600566701061574152620964360958419790090090090007708                                 
924421600585821141574152620953161028220560090060051654276                                 
898511620725821031564144583859281026219290090090075947594                                 
898411620725981111564144583859281026220090090090075947594                                 
924921620725961231564144583859241026221490090090075947594                                 
924721620725901241564144583859241026221590090090075947594                                 
898911620725961011564144583859281026219090090090075947594                                 
898711620725920991564144583859281026218890090090075947594                                 
965741620725760881564144583859241026217954790054775947594                                 
965641620725801051564144583859241026219654790054775947594                                 
945631620726140761564144583859241026316690090090075947594                                 
945531620726241101564144583859241026320090090090075947594                                 
925021620726081111564144583859241026320290090090075947594                                 
925421620746120791564144583857721140317090090090090009000                                 
899411620745380771564144583857721140116690090090090009000                                 
899111620745400841564144583857721140117390090090090009000                                 
966041620746240741564144583857721140316590090090090009000                                 
965841620746040621564144583857721140315390090090090009000                                 
945931620745920591564144583857721140214990090090090009000                                 
925521620745901091564144583857721140220090090090090009000                                 
899811660786000891627142582560841050317857690057659505950                                 
899711660785841281627142582560841050221757690057659505950                                 
899611660785480671627142582560841050115657690057659505950                                 
899511660785821171627142582560841050220657690057659505950                                 
966641660786221151627142582560841050320663490063459505950                                 
966541660786241141627142582560841050320563490063459505950                                 
946531660786301081627142582560841050319890090090059505950                                 
946431660786241131627142582560841050320390090090059505950                                 
925721660786140981627142582560841050318939290039259505950                                 
899911660785981481627142582560841050223757690057659505950                                 
900311660805760941627142582558761040218390063463490007631                                 
900211660805680861627142582558761040217590063463490007631                                 
967041660805740611627142582558761040215290090090090007631                                 
966941660806040821627142582558761040317390090090090007631                                 
966841660806000821627142582558761040317390090090090007631                                 
947031660806180931627142582558761040318390090090090007631                                 
946731660806000751627142582558761040316590090090090007631                                 
925921660805560991627142582558761040219090090090090007631                                 
925821660805660911627142582558761040218290090090090007631                                 
900511660845060941627142582555121086118367890067877347734                                 
967341660845701011627142582555121086219290090090077347734                                 
947531660845300921627142582555121086118290090090077347734                                 
947331660845541061627142582555121086219690090090077347734                                 
947231660845781051627142582555121086219590090090077347734                                 
926421660845601081627142582555121086219990090090077347734                                 
926221660845540901627142582555121086218190090090077347734                                 
900911660845441151627142582555121086120467890067877347734                                 
901211680865921021596140627561010940219190090090062656265                                 
967741680866061081596140627561010940319939290039262656265                                 
967641680866221171596140627561010940320839290039262656265                                 
948031680866440901596140627561010940318090090090062656265                                 
926921680866260891596140627561010940318060090060062656265                                 
926821680866300771596140627561010940316860090060062656265                                 
926721680865640751596140627561010940216660090060062656265                                 
901511680866341001596140627561010940318990090090062656265                                 
901411680866101001596140627561010940318990090090062656265                                 
967841680886841141596140627564581020420545090045051415141                                 
927221680886320841596140627564581020317560090060051415141                                 
927021680886740931596140627564581020418460090060051415141                                 
902011680886401111596140627564581020320065990065951415141                                 
901611680885981051596140627564581020219465990065951415141                                 
902111680926200991596140627562771156318830090030045004500                                 
902311860965680901641154583058481060217963490063461826182                                 
902211860965800431641154583058481060213263490063461826182                                 
948331860965841051641154583058481060219545090045061826282                                 
902411860965860701641154583058481060215963490063461826182                                 
902811860985800781641154583058111076216760090060070454816                                 
                                                                                          
HTHS 1+2-3+4 10202  203  2                                                                
*ENDTEXT                                                                                  
