*TEXT                                                                                     
17020100000400000000000000010001200504020404                                              
D/S   012550080910111214151617                                                            
000302601 35.000000WNG WT                                                                 
100603003 1.0000000BV WWT                                                                 
100603703 1.0000000BV MAT                                                                 
100604403 0.5000000BV LSZ                                                                 
01020010100101009 1  5   318  -2910   3071    609   -899   1419 1427 285                  
01020020100101009 1  5   224  -2115    608   -917   1331    261 1427 285                  
01020030100101009 0  5   312   -841  -1313  -1108      0      0 1427 285                  
01020040100101009 1  5   311  -3095   2702    357    219  -2752 1427 285                  
01020050100101009 1  5   262  -1758   2759    304    422  -2676 1427 285                  
01020060100101038 1  5   341   1611   -180   -621  -1464   4216 1883 377                  
01020070100101038 1  5   429    579   -429    -14   -372  -2609 1883 377                  
01020080100101038 1  5   415    957    405   -377    604   2265 1883 377                  
01020090100101038 0  5   305   -445  -1054    769      0      0 1883 377                  
01020100100101038 1  5   393  -1499    -45   -159  -1508   5033 1883 377                  
01020110101401097 1  5   289   1991  -2818   -195    175  -1975 1601 320                  
01020120101401097 0  5   333   2322  -1423   1080      0      0 1601 320                  
01020130101401097 1  5   346   2157   -683    751   1421   2146 1601 320                  
01020140101401097 0  5   259    154  -4867    378      0      0 1601 320                  
01020150101401097 1  5   373   -241  -4200    225    916  -3839 1601 320                  
01020160101401171 1  9   346   -420  -2400    382  -2344   4442 2502 278                  
01020170101401171 1  9   338   1026  -2225    899   -925   1484 2502 278                  
01020180101401171 1  9   279   1198  -3584   1244     11  -1538 2502 278                  
01020190101401171 0  9   293   4205  -7413   1251      0      0 2502 278                  
01020200101401171 0  9   319   3437  -1455   2161      0      0 2502 278                  
01020210101401171 0  9   275    276  -1260   1851      0      0 2502 278                  
01020220101401171 0  9   234     46   -238   1249      0      0 2502 278                  
01020230101401171 1  9   251    242   -251    761    -78   -106 2502 278                  
01020240101401171 0  9   167    707   1085   -122      0      0 2502 278                  
01020250102401016 0  5   432   1530   2626    -41      0      0 2188 438                  
01020270102401016 0  5   451    836  -1335   -583      0      0 2188 438                  
01020280102401016 1  5   364   1082   -516   1277   1870  -6307 2188 438                  
01020290102401016 0  5   453   2482  -3996    727      0      0 2188 438                  
01020300102401032 1  7   348  -1483     81   1073   -944   4055 2253 322                  
01020310102401032 1  7   370    715   -796    812   2453  -6175 2253 322                  
01020320102401032 0  7   199  -1123   3550    179      0      0 2253 322                  
01020330102401032 1  7   268   3024    715   1411  -1302    665 2253 322                  
01020340102401032 1  7   336   3408  -2543   1035    277  -1764 2253 322                  
01020350102401032 0  7   377   1375   -971    788      0      0 2253 322                  
01020360102401032 0  7   354  -1913   2624   1223      0      0 2253 322                  
01020380103601119 1  9   343  -1995   1872    268    466  -1632 3712 412                  
01020410103601119 0  9   344  -1250    -59   -221      0      0 3712 412                  
01020420103601119 1  9   408   -368   -589    145    158  -2103 3712 412                  
01020430103601119 1  9   421   -284   1457   1478  -1255    905 3712 412                  
01020440103601119 1  9   387  -2186   1448   -162   -169   -442 3712 412                  
01020450103601119 0  9   364   -385   2362   -265      0      0 3712 412                  
01020460103601190 0  3   240  -2531   5200    882      0      0 1082 361                  
01020470103601190 0  3   389  -2831   5082   -197      0      0 1082 361                  
01020480103601190 0  3   453  -1704   4628   1010      0      0 1082 361                  
01020490105401002 0  8   386    912   1809   1161      0      0 2902 363                  
01020500105401002 0  8   398   4879  -2296   1959      0      0 2902 363                  
01020510105401002 1  8   347   3199  -3067   1731   1016  -4488 2902 363                  
01020520105401002 1  8   283   2443  -4952    909   -380   1299 2902 363                  
01020530105401002 0  8   441   1428  -2909    -82      0      0 2902 363                  
01020540105401002 1  8   307   1904   -483    296   -114   -430 2902 363                  
01020560105401002 1  8   353   2399  -4902   1305   -200   1584 2902 363                  
01020580105401020 0  6   411   2381  -3469    -70      0      0 2236 373                  
01020590105401020 0  6   353   -634   -637   -858      0      0 2236 373                  
01020600105401020 0  6   334    784    348   1034      0      0 2236 373                  
01020610105401020 0  6   360   -565   -405    261      0      0 2236 373                  
01020620105401020 1  6   325   -926  -3795    247    -62   2003 2236 373                  
01020630105601079 1 14   308   3601     81   2700  -1663   2192 4030 288                  
01020640105601079 1 14   239   1042  -2063   2557  -1155    851 4030 288                  
01020650105601079 1 14   310   2612  -3020   1196    164   -585 4030 288                  
01020670105601079 0 14   296   -758  -3848   1222      0      0 4030 288                  
01020680105601079 0 14   153    224  -3104   1268      0      0 4030 288                  
01020690105601079 0 14   288    192   -507   2018      0      0 4030 288                  
01020700105601079 0 14   344   -228  -1485   1420      0      0 4030 288                  
01020710105601079 1 14   223  -1976    472   1379    204   3833 4030 288                  
01020720105601079 0 14   317   2440  -3825   1920      0      0 4030 288                  
01020730105601079 0 14   271   -565   -283   1525      0      0 4030 288                  
01020740105601079 1 14   294     49  -1031   1323    120   1849 4030 288                  
01020760105601079 1 14   239    -84   1663   1116  -1200   3880 4030 288                  
01020770105601133 0  5   329  -1384  -1241   1493      0      0 1439 288                  
01020780105601133 0  5   296   -525   -575   1188      0      0 1439 288                  
01020790105601133 1  5   233  -3623   3808   1218    163     10 1439 288                  
01020800105601133 1  5   265  -2984   3779   1774  -1273   1453 1439 288                  
01020810105601133 1  5   315  -3888   4302    897   2382  -3987 1439 288                  
01020820106701093 0  7   386   1584  -7916    503      0      0 2387 341                  
01020830106701093 0  7   343    961  -3156    619      0      0 2387 341                  
01020840106701093 1  7   320   -552  -4608   -152  -1321   3906 2387 341                  
01020850106701093 0  7   366  -2733   -962   -774      0      0 2387 341                  
01020860106701093 0  7   375   2249  -6919   -680      0      0 2387 341                  
01020870106701093 0  7   364   2522  -7569   -762      0      0 2387 341                  
01020880106701093 1  7   233  -2852  -4854  -1178    -16   3751 2387 341                  
01020890106701126 1 11   357   -130  -5222  -1408    836   1905 2839 258                  
01020900106701126 1 11   212  -1840  -4427    460  -1325   1510 2839 258                  
01020910106701126 0 11   193    971  -5405    120      0      0 2839 258                  
01020920106701126 0 11   271   1339  -6972  -1100      0      0 2839 258                  
01020930106701126 1 11   245   3198 -10628  -1270    523   -523 2839 258                  
01020940106701126 0 11   296  -2138  -2463   -690      0      0 2839 258                  
01020950106701126 0 11   260   -723  -2614    209      0      0 2839 258                  
01020960106701126 0 11   232   -697  -2640    545      0      0 2839 258                  
01020970106701126 1 11   382   1695  -3928   -413   1155   -672 2839 258                  
01020980106701126 1 11   226   1158  -8215   -934   -325   -631 2839 258                  
01020990106701126 0 11   165   -435  -5515    493      0      0 2839 258                  
01021000108601040 1  6   308    415  -1499   1873     35  -2544 2041 340                  
01021010108601040 1  6   326   2375  -3267    -83   -294   -282 2041 340                  
01021020108601040 0  6   339   1301  -1148    464      0      0 2041 340                  
01021030108601040 0  6   252   3445  -8068    182      0      0 2041 340                  
01021040108601040 0  6   439   -622  -1257    487      0      0 2041 340                  
01021050108601040 1  6   378    683   -253    407    429    -95 2041 340                  
01021060108601113 1  4   434     63   4045    -57  -1322   6639 1605 401                  
01021070108601113 1  4   360    236   1245    228   -595   1550 1605 401                  
01021080108601113 1  4   409   -144   2193    211   1565  -6432 1605 401                  
01021090108601113 0  4   401   2005   1345    688      0      0 1605 401                  
01021100109801112 1  6   294   1245   1764    173   -922   1235 1990 332                  
01021110109801112 1  6   297   2347   1638     -5    -24   -210 1990 332                  
01021120109801112 0  6   273   1434  -3240   -511      0      0 1990 332                  
01021130109801112 1  6   437   1414  -2654    255    622  -2790 1990 332                  
01021140109801112 1  6   273   2527    538    999   -608   5558 1990 332                  
01021150109801112 0  6   416   3483  -4324   -380      0      0 1990 332                  
01021160109801160 0  3   449   1593  -2549    226      0      0 1070 357                  
01021170109801160 1  3   343   1198   1185     65    125   3806 1070 357                  
01021180109801160 1  3   278   1410  -2223   1296     47   -578 1070 357                  
01021190110901084 1  3   382   4289  -5110    795  -1743   3707 1131 377                  
01021200110901084 0  3   350   3835  -3816   -269      0      0 1131 377                  
01021210110901084 1  3   399   1957  -3332      6   1010  -6202 1131 377                  
01021220110901183 0  6   377   3467  -3605   -496      0      0 2213 369                  
01021230110901183 1  6   369   1532   1845    135   -765   1302 2213 369                  
01021240110901183 0  6   411    802    956    911      0      0 2213 369                  
01021250110901183 1  6   372   1365  -1392     -7   2118  -4639 2213 369                  
01021260110901183 1  6   334   3203  -1075    112  -1251    101 2213 369                  
01021270110901183 0  6   350    -48   -285   -899      0      0 2213 369                  
01021280111601034 0 11   343  -2043    744   1610      0      0 3906 355                  
01021310111601034 1 11   410    680  -3928   1242   -411   -830 3906 355                  
01021320111601034 0 11   342   3873  -6483   1358      0      0 3906 355                  
01021330111601034 1 11   350   1972   1428   2276    437    584 3906 355                  
01021340111601034 1 11   294   1552  -3243    741    194   2098 3906 355                  
01021350111601034 1 11   384   1457    352    831   -573  -1034 3906 355                  
01021370111601034 1 11   295   1618  -4638   1030   1396  -4947 3906 355                  
01021380111601034 1 11   281  -2103   2815   1066   -658   3389 3906 355                  
01021390111601175 0  6   396    818   2368    252      0      0 1989 331                  
01021400111601175 1  6   186    137  -4356   1441   1418  -6225 1989 331                  
01021410111601175 0  6   333     64   3956   -876      0      0 1989 331                  
01021420111601175 1  6   422     16    882   -505    100   1179 1989 331                  
01021430111601175 1  6   272  -3094   2716    521   1886  -4157 1989 331                  
01021440111601175 0  6   381   4278  -6348    585      0      0 1989 331                  
01021450113401022 1  4   339    465     23    628   2096  -4666 1412 353                  
01021460113401022 0  4   296  -1476   3623    835      0      0 1412 353                  
01021470113401022 0  4   398   3168  -2357    894      0      0 1412 353                  
01021480113401022 0  4   379   -341   2858    630      0      0 1412 353                  
01021490113401072 1  6   372   -773    631   -579   -464   2434 2220 370                  
01021500113401072 1  6   335    501    -65    864   -440    554 2220 370                  
01021510113401072 0  6   445    785   3097   1406      0      0 2220 370                  
01021520113401072 1  6   334  -2786   3196    681    -14  -2304 2220 370                  
01021530113401072 0  6   357    873   1572    682      0      0 2220 370                  
01021540113401072 0  6   377    390    945   1121      0      0 2220 370                  
01021550115201060 0  5   353   2086  -3132    866      0      0 1981 396                  
01021570115201060 1  5   407   3389   1069   1596   1254  -3967 1981 396                  
01021580115201060 0  5   379    920   -148   1280      0      0 1981 396                  
01021590115201060 0  5   369   1865  -3027   1241      0      0 1981 396                  
01021600117201145 0  7   301  -2299  -1734    -14      0      0 2504 358                  
01021610117201145 0  7   423   -108  -2403    992      0      0 2504 358                  
01021620117201145 1  7   332   -558   -620    354    -15   -836 2504 358                  
01021630117201145 0  7   322    285  -2105    228      0      0 2504 358                  
01021640117201145 0  7   348  -2136  -2218    908      0      0 2504 358                  
01021650117201145 0  7   352  -1002  -1180    370      0      0 2504 358                  
01021660117201145 0  7   426   -380  -1097     65      0      0 2504 358                  
01021670117201153 0 10   457  -1489    420     94      0      0 4323 432                  
01021710117201153 0 10   478   -238   -673    945      0      0 4323 432                  
01021720117201153 1 10   406  -1332   1357   1589    635  -1892 4323 432                  
01021730117201153 1 10   330   -268    399   1057  -1964   4735 4323 432                  
01021740117201153 1 10   401   -809  -1957   1111     88   -510 4323 432                  
01021750117201153 0 10   477    191   -183   1834      0      0 4323 432                  
01021760117201153 1 10   361  -1932  -2744    233   -350   -687 4323 432                  
01021770118101055 0  2   360  -1983   1705   -425      0      0  717 359                  
01021780118101055 1  2   357    632   -996    676    118  -4390  717 359                  
01021790118101063 1  9   306   2423  -4218   1602   -563   5688 2561 285                  
01021800118101063 1  9   226   1279  -2899    978    835    287 2561 285                  
01021810118101063 0  9   327   1350  -1741   2281      0      0 2561 285                  
01021820118101063 0  9   257    191   -494    200      0      0 2561 285                  
01021830118101063 0  9   367  -2922    201   1356      0      0 2561 285                  
01021840118101063 0  9   300   3595  -5161    725      0      0 2561 285                  
01021850118101063 0  9   266     19     48    975      0      0 2561 285                  
01021860118101063 0  9   222  -3633    -72   -742      0      0 2561 285                  
01021870118101063 1  9   290   2659  -1547    959   1487  -4490 2561 285                  
                                                                                          
*ENDTEXT                                                                                  
