*TEXT                                                                                     
05020100310300010005000006010001200502020202                                              
ANIMLS0000000101                                                                          
01TRTS  05010200010002000300040005                                                        
010102DAY T108120200110012001300140015001600170018                                        
010203DAY T208120200210022002300240025002600270028                                        
010304DAY T308120200310032003300340035003600370038                                        
010405DAY T40412020041004300450047                                                        
010506DAY T50412020051005300550057                                                        
000300402 5.8000000PH                                                                     
000400702 45.000000WT H C                                                                 
000201102 0.5000000EMUL                                                                   
1125606455454221862426912412 -25-25  0  0  0  625  625    0    0    0                     
1115635059474091556520611638 -35-35  0  0  0 1225 1225    0    0    0                     
1165624708484511881407511881  15 15  0  0  0  225  225    0    0    0                     
1155675581484602225388112200   5  5  0  0  0   25   25    0    0    0                     
1145645584464631912421212338  -5 -5  0  0  0   25   25    0    0    0                     
1135605940444351756435012506 -15-15  0  0  0  225  225    0    0    0                     
1287460884518720806418110944  35  0 35  0  0 1225    0 1225    0    0                     
1276602254525231056453112356  25  0 25  0  0  625    0  625    0    0                     
1266353963504881150421212625  15  0 15  0  0  225    0  225    0    0                     
1256632602544991181425012538   5  0  5  0  0   25    0   25    0    0                     
1246203592525071069483112156  -5  0 -5  0  0   25    0   25    0    0                     
1235655820494551050476213638 -15  0-15  0  0  225    0  225    0    0                     
1225595660444341112478811394 -25  0-25  0  0  625    0  625    0    0                     
1215624568474001306550011888 -35  0-35  0  0 1225    0 1225    0    0                     
1185624994444602425402511744  35 35  0  0  0 1225 1225    0    0    0                     
1175645337464582688448810888  25 25  0  0  0  625  625    0    0    0                     
2125534688454141162453112625 -25-25  0  0  0  625  625    0    0    0                     
2115545022444021750448812231 -35-35  0  0  0 1225 1225    0    0    0                     
2185575336484691375382513044  35 35  0  0  0 1225 1225    0    0    0                     
2175585651454721300389412969  25 25  0  0  0  625  625    0    0    0                     
2165504911424481450381213006  15 15  0  0  0  225  225    0    0    0                     
2155505493464621275388812875   5  5  0  0  0   25   25    0    0    0                     
2145545223464371012416212831  -5 -5  0  0  0   25   25    0    0    0                     
2135494947424320875420012931 -15-15  0  0  0  225  225    0    0    0                     
2385925582504621381378112944  35  0  0 35  0 1225    0    0 1225    0                     
2375705329444661306376313288  25  0  0 25  0  625    0    0  625    0                     
2365824386464381450395012950  15  0  0 15  0  225    0    0  225    0                     
2355515366484431350383113050   5  0  0  5  0   25    0    0   25    0                     
2345495138484321138396913244  -5  0  0 -5  0   25    0    0   25    0                     
2335544807434281075426912888 -15  0  0-15  0  225    0    0  225    0                     
2325504571444141169438812788 -25  0  0-25  0  625    0    0  625    0                     
2315514568464022063463811744 -35  0  0-35  0 1225    0    0 1225    0                     
3125605513464082550410611838 -25-25  0  0  0  625  625    0    0    0                     
3115605358484112456468811369 -35-35  0  0  0 1225 1225    0    0    0                     
3165605503464562725384412212  15 15  0  0  0  225  225    0    0    0                     
3155605776464552912355611575   5  5  0  0  0   25   25    0    0    0                     
3145575655444322706371211981  -5 -5  0  0  0   25   25    0    0    0                     
3135595278404152550399412075 -15-15  0  0  0  225  225    0    0    0                     
3185604804464522612361912262  35 35  0  0  0 1225 1225    0    0    0                     
3175595758444502788356911900  25 25  0  0  0  625  625    0    0    0                     
3225584903444051412427513000 -25  0-25  0  0  625    0  625    0    0                     
3215584531454032150453112038 -35  0-35  0  0 1225    0 1225    0    0                     
3287900329566980962468811462  35  0 35  0  0 1225    0 1225    0    0                     
3277451023576070956488111475  25  0 25  0  0  625    0  625    0    0                     
3267002097545091000485612506  15  0 15  0  0  225    0  225    0    0                     
3256942476524491000467312744   5  0  5  0  0   25    0   25    0    0                     
3246862652524201025480612581  -5  0 -5  0  0   25    0   25    0    0                     
3236354098494021100458813069 -15  0-15  0  0  225    0  225    0    0                     
4235604484424501278436612904 -15  0-15  0  0  225    0  225    0    0                     
4215454798484111394493611830 -35  0-35  0  0 1225    0 1225    0    0                     
4135534821454371612448212314 -15-15  0  0  0  225  225    0    0    0                     
4115444929484071463495011699 -35-35  0  0  0 1225 1225    0    0    0                     
4175514839494542187420911921  25 25  0  0  0  625  625    0    0    0                     
4155594608514581907390312136   5  5  0  0  0   25   25    0    0    0                     
4277141007576931044318212541  25  0 25  0  0  625    0  625    0    0                     
4256622387514931056397212439   5  0  5  0  0   25    0   25    0    0                     
4435714324454111460457612693 -15  0  0  0-15  225    0    0    0  225                     
4415464602474091362498111742 -35  0  0  0-35 1225    0    0    0 1225                     
4535744371464101404453812530 -15 15 15 15 15  225 -225 -225 -225 -225                     
4515444621494121427487811802 -35 35 35 35 35 1225-1225-1225-1225-1225                     
4476531289526221223361412308  25  0  0  0 25  625    0    0    0  625                     
4455972693485341239412412429   5  0  0  0  5   25    0    0    0   25                     
4576421341546101261372712207  25-25-25-25-25  625 -625 -625 -625 -625                     
4555882726505041372382612641   5 -5 -5 -5 -5   25  -25  -25  -25  -25                     
5535824176484181329441011982 -15 15 15 15 15  225 -225 -225 -225 -225                     
5515544483504101426461411781 -35 35 35 35 35 1225-1225-1225-1225-1225                     
5576291631515721365342912261  25-25-25-25-25  625 -625 -625 -625 -625                     
5556023209524921232398712570   5 -5 -5 -5 -5   25  -25  -25  -25  -25                     
5435644111454151427421312217 -15  0  0  0-15  225    0    0    0  225                     
5415534413504121622421911944 -35  0  0  0-35 1225    0    0    0 1225                     
5476411599495841401357312130  25  0  0  0 25  625    0    0    0  625                     
5456052954464971397404412103   5  0  0  0  5   25    0    0    0   25                     
5235784031484291741421011862 -15  0-15  0  0  225    0  225    0    0                     
5215524362524141965451211294 -35  0-35  0  0 1225    0 1225    0    0                     
5276921487596021325376111984  25  0 25  0  0  625    0  625    0    0                     
5256313344534781411429812009   5  0  5  0  0   25    0   25    0    0                     
5135424381504291593412012479 -15-15  0  0  0  225  225    0    0    0                     
5115534695514131351449212063 -35-35  0  0  0 1225  225    0    0    0                     
5175504809524521222394112646  25 25  0  0  0  625  625    0    0    0                     
5155554532494611274387412732   5  5  0  0  0   25   25    0    0    0                     
6135604834424332011417411560 -15-15  0  0  0  225  225    0    0    0                     
6115585290444161981487711336 -35-35  0  0  0 1225 1225    0    0    0                     
6175645320434632231361412007  25 25  0  0  0  625  625    0    0    0                     
6155625061404652135396211692   5  5  0  0  0   25   25    0    0    0                     
6236284708444461220470312040 -15  0-15  0  0  225    0  225    0    0                     
6215575091464211851495611574 -35  0-35  0  0 1225    0 1225    0    0                     
6277420979516140947362212359  25  0 25  0  0  625    0  625    0    0                     
6256912202495071206403012274   5  0  5  0  0   25    0   25    0    0                     
6435824390444211732432412401 -15  0  0  0-15  225    0    0    0  225                     
6415584894464191877480411769 -35  0  0  0-35 1225    0    0    0 1225                     
6476621201485901545359612159  25  0  0  0 25  625    0    0    0 1225                     
6456382721425011620421812247   5  0  0  0  5   25    0    0    0   25                     
6535874466424261516443912307 -15 15 15 15 15  225 -225 -225 -225 -225                     
6515564928464151723462212030 -35 35 35 35 35 1225-1225-1225-1225-1225                     
6576601181476001287321312400  25-25-25-25-25  625 -625 -625 -625 -625                     
6556292690425141490360912469   5 -5 -5 -5 -5   25  -25  -25  -25  -25                     
                                                                                          
1+2 VS 3,4 +510202  503  5                                                                
1 VS 2       10202  103 -1                                                                
3 VS 4 + 5   10302  103  104  3                                                           
4 VS 5       10402  103  104  105  2                                                      
1 VS REST    10102  5                                                                     
3 VS 4       10204  105 -1                                                                
*ENDTEXT                                                                                  
