*TEXT                                                                                     
35060100110300020000010200010001200507020301                                              
S/G   000000020102                                                                        
01LINES 030101000100020003                                                                
02AGES  030103000300040005                                                                
010200                                                                                    
0001010300600  17500000B AGE                                                              
0001020300900  42000000B WT.                                                              
000301202    250000FAKE                                                                   
000301502    256742A.D.G.                                                                 
000301802    150000AGAIN                                                                  
11302154403265265265                                                                      
11301192390190224224                                                                      
11404183457225225225                                                                      
11403185432241241241                                                                      
11506177469267267267                                                                      
11505186483258258258                                                                      
11508163439247247247                                                                      
11507177428271271271                                                                      
12410178407226226226                                                                      
12409188439229229229                                                                      
12516168417275275275                                                                      
12515171382172172172                                                                      
12514175375252252252                                                                      
12513186459244244244                                                                      
12512193459214214214                                                                      
12511198498197197197                                                                      
13317154389238238238                                                                      
13418184414246246246                                                                      
13521169443294294294                                                                      
13520170430230230230                                                                      
13519174483229229229                                                                      
24322158381250250250                                                                      
24323158365244244244                                                                      
24425144339215215215                                                                      
24424169386244244244                                                                      
24526159419254254254                                                                      
24529149375254254254                                                                      
24528149376250250250                                                                      
24527152469274274274                                                                      
25330189395265265265                                                                      
25432165430267267267                                                                      
25431187447252252252                                                                      
25534177385233233233                                                                      
25533181453279279279                                                                      
25536147353269269269                                                                      
25535151414267267267                                                                      
36438184420249249249                                                                      
36437184411300300300                                                                      
36542177352231231231                                                                      
36541183337202202202                                                                      
36540184409249249249                                                                      
36539187427225225225                                                                      
37344193340237237237                                                                      
37343205472257257257                                                                      
37445162375264264264                                                                      
37546206451237237237                                                                      
37550175414213213213                                                                      
37549178464261261261                                                                      
37548187402190190190                                                                      
37547205472222222222                                                                      
38353175449252252252                                                                      
38352184356233233233                                                                      
38351200466216216216                                                                      
38454178360245245245                                                                      
38557183401217217217                                                                      
38556184431172172172                                                                      
38555189385144144144                                                                      
39358166404268268268                                                                      
39461184483244244244                                                                      
39460186350236236236                                                                      
39459187482243243243                                                                      
39562180425266266266                                                                      
39565164405242242242                                                                      
39564175449252252252                                                                      
39563177420246246246                                                                      
                                                                                          
*ENDTEXT                                                                                  
